:100000000C945F010C9487010C9487010C94870178
:100010000C9487010C9487010C9487010C94870140
:100020000C9487010C9487010C9487010C94870130
:100030000C9487010C9487010C9487010C94870120
:100040000C94880A0C9487010C94F80A0C94D20A38
:100050000C9487010C9487010C9487010C94870100
:100060000C942A0B0C94870105A84CCDB2D44EB940
:100070003836A9020C50B9918688083CA6AAAA2A4B
:10008000BE000000803F08000000BE922449123EDE
:10009000ABAAAA2ABECDCCCC4C3E00000080BEABA1
:1000A000AAAAAA3E00000000BF000000803F000096
:1000B000000000084178D3BB4387D1133D190E3CA3
:1000C000C3BD4282AD2B3E68EC8276BED98FE1A9DA
:1000D0003E4C80EFFFBE01C4FF7F3F0000000000E8
:1000E0000664EC1B3C04BC163E3BE5B93CC93C37FE
:1000F000C29E5A3D660498083EEA69AAAA3E0000DC
:1001000000803F07634236B79BD8A71A3968561854
:10011000AEBAAB558C1D3CB7CC5763BD6DEDFD75CC
:100120003EF6177231BF000000803F0000407A1099
:10013000F35A00A0724E18090010A5D4E80000E898
:100140007648170000E40B54020000CA9A3B0000F6
:1001500000E1F505000080969800000040420F0085
:100160000000A08601000000102700000000E80346
:10017000000000006400000000000A000000000011
:100180000100000000002C76D888DC674F0823DFD0
:10019000C1DFAE59E1B1B796E5E3E453C63AE651A3
:1001A000997696E8E6C28426EB898C9B62ED407CCA
:1001B0006FFCEFBC9C9F40F2BAA56FA5F490055A66
:1001C0002AF75C936B6CF9676DC11BFCE0E40D478B
:1001D000FEF520E6B500D0ED902E030094357705AE
:1001E0000080841E080000204E0A000000C80C3366
:1001F0003333330F986E12831141EF8D2114893BF5
:10020000E65516CFFEE6DB18D1844B381BF77C1D74
:10021000901DA4BBE424203284725E228100C9F1C7
:1002200024ECA1E53D2720002020202020202020B4
:1002300020202020202020202020202000202020DE
:1002400020202020202020202020202020202020AE
:100250002000660067002020200072616400677241
:10026000640000000000240027002A0000000000B5
:10027000250028002B000000000023002600290094
:10028000040404040404040402020202020203033C
:100290000303030301020408102040800102040844
:1002A00010200102040810200000000800020100D4
:1002B000000304070000000000000000490C1124A6
:1002C0001FBECFEFD8E0DEBFCDBF11E0A0E0B1E0B0
:1002D000ECEAFBE302C005900D92A63EB107D9F708
:1002E00023E0A6EEB1E001C01D92A63EB207E1F701
:1002F00011E0CFE5D1E004C02197FE010E94DC1B94
:10030000CE35D107C9F70E94FE0C0C94D41D0C9475
:100310000000FC01A6EDB3E012968D919C9113971D
:10032000938382838BE791E09183808314968C91F1
:100330001497848315968C911597858316968C91C6
:100340001697868317968C911797878318968C91AA
:100350001897808719968C91199781871A968C9196
:100360001A9782871B968C918387089596E0899FC0
:10037000D0011124A959BC4F90967C936E935F973E
:1003800091E091969C939197E091D403F091D503DD
:100390009091D303992339F0309751F0811108C01F
:1003A000809183030994309719F05C968C91FACF71
:1003B0000895CF92DF92EF92FF920F931F9396E0F2
:1003C000899FF0011124E959FC4F11A2278D30A11A
:1003D0002130310551F178F02230310509F451C056
:1003E0002330310509F452C01F910F91FF90EF9017
:1003F000DF90CF9008956623B9F361E070E00E942A
:10040000B6012FB7F8948091BA029091BB02A091E7
:10041000BC02B091BD022FBF8093BF039093C00375
:10042000A093C103B093C203DFCF9FB7F894C090ED
:10043000BA02D090BB02E090BC02F090BD029FBF18
:100440000091BF031091C0032091C1033091C203FA
:10045000C01AD10AE20AF30A0091D1031091D20323
:1004600030E020E00C151D052E053F0550F462E03C
:1004700070E01F910F91FF90EF90DF90CF900C9460
:10048000B6016111B1CF63E070E0F3CF70E060E0DE
:10049000F0CF833081F028F4813099F08230A9F0D8
:1004A00008958730A9F08830C9F08430B1F4809184
:1004B00080008F7D03C0809180008F7780938000C3
:1004C000089584B58F7784BD089584B58F7DFBCF63
:1004D0008091B0008F778093B00008958091B00034
:1004E0008F7DF9CFCF93DF93282F30E0F901E855C6
:1004F000FD4F8491F901EC56FD4FD491F901E0587C
:10050000FD4FC491CC23A1F081110E944902EC2F30
:10051000F0E0EE0FFF1FEA58FD4FA591B491EC916A
:10052000ED2381E090E009F480E0DF91CF91089520
:1005300080E090E0FACF1F93CF93DF93282F30E035
:10054000F901E855FD4F8491F901EC56FD4FD49126
:10055000F901E058FD4FC491CC23A9F0162F811169
:100560000E944902EC2FF0E0EE0FFF1FE459FD4F0F
:10057000A591B4918FB7F894EC91111108C0D09562
:10058000DE23DC938FBFDF91CF911F910895DE2B87
:10059000F8CFCF93DF9390E0FC01EC56FD4F249110
:1005A00080589D4FFC0184918823C9F090E0880F0A
:1005B000991FFC01EE59FD4FA591B491FC01E4593E
:1005C000FD4FC591D49161110DC09FB7F8948C91E6
:1005D000209582238C938881282328839FBFDF91D5
:1005E000CF910895623051F49FB7F8943C91822FD7
:1005F000809583238C93E8812E2BEFCF8FB7F894CF
:10060000EC912E2B2C938FBFEACF3FB7F8948091BB
:10061000B6029091B702A091B802B091B90226B586
:10062000A89B05C02F3F19F00196A11DB11D3FBF2A
:10063000BA2FA92F982F8827BC01CD01620F711DF9
:10064000811D911D42E0660F771F881F991F4A95F3
:10065000D1F708958F929F92AF92BF92CF92DF927F
:10066000EF92FF924B015C010E9405036B017C013C
:100670000E9405036C197D098E099F09683E73402D
:1006800081059105A8F321E0821A9108A108B1081B
:1006900088EEC80E83E0D81EE11CF11C8114910481
:1006A000A104B10429F7FF90EF90DF90CF90BF90A5
:1006B000AF909F908F900895862F642F0C94C9025D
:1006C000862F642F0C949B02862F0C94720208953F
:1006D00008950895AF92BF92CF92DF92EF92FF926A
:1006E0000F931F93CF93DF936C017B018B01040F5A
:1006F000151FEB015E01AE18BF08C017D10759F0F6
:100700006991D601ED91FC910190F081E02DC60137
:100710000995892B79F7C501DF91CF911F910F9131
:10072000FF90EF90DF90CF90BF90AF900895FC01C5
:10073000538D448D252F30E0842F90E0821B930B46
:10074000541710F0CF96089501970895FC01918DEC
:10075000828D981761F0A28DAE0FBF2FB11D5D96EF
:100760008C91928D9F5F9F73928F90E008958FEF91
:100770009FEF0895FC01918D828D981731F0828D45
:10078000E80FF11D858D90E008958FEF9FEF08959C
:10079000FC01918D228D892F90E0805C9F4F821B00
:1007A00091098F73992708958EEB92E00E94C803F8
:1007B00021E0892B09F420E0822F089580E090E069
:1007C000892B29F00E94D40381110C940000089514
:1007D000FC01A48DA80FB92FB11DA35ABF4F2C91B6
:1007E000848D90E001968F739927848FA689B789AD
:1007F0002C93A089B1898C91837080648C93938DA4
:10080000848D981306C00288F389E02D80818F7D46
:1008100080830895EF92FF920F931F93CF93DF93FE
:10082000EC0181E0888F9B8D8C8D98131AC0E8892C
:10083000F989808185FF15C09FB7F894EE89FF89FB
:100840006083E889F98980818370806480839FBF99
:1008500081E090E0DF91CF911F910F91FF90EF9099
:100860000895F62E0B8D10E00F5F1F4F0F731127A9
:10087000E02E8C8D8E110CC00FB607FCFACFE889E4
:10088000F989808185FFF5CFCE010E94E803F1CF81
:10089000EB8DEC0FFD2FF11DE35AFF4FF0829FB758
:1008A000F8940B8FEA89FB8980818062CFCFCF9348
:1008B000DF93EC01888D8823B9F0AA89BB89E88988
:1008C000F9898C9185FD03C0808186FD0DC00FB62E
:1008D00007FCF7CF8C9185FFF2CF808185FFEDCFAC
:1008E000CE010E94E803E9CFDF91CF9108952091D6
:1008F0002702260F3327331F21323105ECF42091D4
:100900007002FC0190E080E0243069F082E00895FC
:10091000A09127022191AC01495F5D4FA40FB52F33
:10092000B11D2C930196861798F380912702680FCA
:100930006093270280E0089581E00895109270028C
:1009400081E080936F0210924A0261E082E10E948E
:100950009B0261E083E10E949B02E9EBF0E0808171
:100960008E7F808380818D7F808388E48093B80030
:1009700085E48093BC000895CF93DF9391E090933A
:1009800006028823B9F0C091B800D091BA008091D6
:10099000BC008A7B8093BC0060E082E10E949B02E5
:1009A00060E083E10E949B020E949E04D093BA0003
:1009B000C093B800DF91CF9108950895E0919F0210
:1009C00080919E02E81730F4F0E0EA51FE4F8081FA
:1009D00090E008958FEF9FEF089590919F0280918E
:1009E0009E022FEF3FEF981748F4E92FF0E0EA510D
:1009F000FE4F208130E09F5F90939F02C9010895D0
:100A000080919E0290919F02891B990B0895CF922D
:100A1000DF92EF92FF920F931F93CF93DF937C01AE
:100A2000CB018A0120917602222389F0EB016B0130
:100A3000C40ED51ECC15DD0569F06991D701ED9185
:100A4000FC910190F081E02DC7010995F3CF642F4F
:100A50000E947704C801DF91CF911F910F91FF9001
:100A6000EF90DF90CF900895CF93DF931F92CDB793
:100A7000DEB76983209176022223F9F020919C024F
:100A8000203258F021E030E0FC013383228390E0F3
:100A900080E00F90DF91CF91089580919D02E82F23
:100AA000F0E0E958FD4F998190838F5F80939D021C
:100AB00080939C0281E090E0ECCF61E0CE01019652
:100AC0000E947704F7CFCF92DF92EF92FF920F93BD
:100AD0001F93CF93DF93FC01C48121E02093760222
:100AE000C093970210929D0210929C028385682BFE
:100AF0008BE593E00E943405D0919C02D13208F03E
:100B000092C00E9405036B017C01809170028111EB
:100B100065C082E08093700281E080936F028FEF66
:100B200080936E0210926D02D0936C02A7E7B2E040
:100B3000ECE4F2E080E0D81385C010924B02809183
:100B40004B02CC0FC82BC0934B0280914A028130DC
:100B500009F07CC010924A020E9405036B017C01DF
:100B600080914B028093BB0080917202909173023E
:100B7000A0917402B0917502892B8A2B8B2B99F06E
:100B80000E94050300917202109173022091740279
:100B9000309175026C197D098E099F090617170798
:100BA00028073907E0F18091BC0083FDD9CF85EC9F
:100BB0008093BC000E9405036B017C018091700250
:100BC000823009F445C080916E028F3F61F18091BF
:100BD0006E02803241F180916E0225C080917202D6
:100BE00090917302A0917402B0917502892B8A2BA7
:100BF0008B2B09F48ACF0E94050300917202109199
:100C0000730220917402309175026C197D098E096E
:100C10009F09061717072807390708F076CF809134
:100C200071020E94BC0410929D0210929C021092CC
:100C30007602DF91CF911F910F91FF90EF90DF909F
:100C4000CF9008959D9191938F5F75CF85EEB0CF32
:100C50008091720290917302A0917402B09175021A
:100C6000892B8A2B8B2B09F4A9CF0E9405030091B5
:100C700072021091730220917402309175026C1906
:100C80007D098E099F09061717072807390708F0FD
:100C900095CFC5CFE0EAF2E084859585A685B78536
:100CA0004085518562857385448755876687778738
:100CB0004481558166817781408751876287738738
:100CC0004081518162817381448355836683778338
:100CD00080839183A283B3830895E0EAF2E0808168
:100CE0009181A281B381448155816681778140835E
:100CF0005183628373834085518562857385448304
:100D000055836683778344855585668577854087D7
:100D100051876287738784879587A687B7870895E9
:100D2000CF93DF93C0EAD2E020E030E044EB53E41D
:100D3000688179818A819B810E940B172BED3FE0AE
:100D400049EC50E40E94D518688379838A839B8399
:100D5000DF91CF910895CF93DF93C0EAD2E068810D
:100D600079818A819B819B01AC010E9464182BEDE3
:100D70003FE049E450E40E940B1720E030E044EBF0
:100D800053E40E94D518688379838A839B83DF911B
:100D9000CF91089590E080E0089542E050E063E84C
:100DA00071E08EEB92E00C946A03CF93DF93FC0129
:100DB00001900020E9F73197AF01481B590BBC01A6
:100DC0008EEB92E00E946A03EC010E94CD068C0F2C
:100DD0009D1FDF91CF910895CF93DF93EC01888120
:100DE0009981009711F00E947E1C198218821D8241
:100DF0001C821B821A82DF91CF910895FC018081B1
:100E00009181009711F00C947E1C08950F931F930D
:100E1000CF938C01C62F0E9463056C2F6460C801BC
:100E20000E9463056C2F6B7FC8010E94630583ECF1
:100E300090E00197F1F7CF911F910F9108950F93D3
:100E40001F93CF93DF938C01D62FC42F607F642B29
:100E50000E94060780E1D89FB00111246C2BC801C5
:100E6000DF91CF911F910F910C94060741E00E94F2
:100E70001F0781E090E00895EF92FF920F931F9378
:100E8000CF93DF93CDB7DEB728970FB6F894DEBFC8
:100E90000FBECDBF8C01790188E0E1E4F1E0DE0115
:100EA000119601900D928A95E1F7F80180858617D9
:100EB00010F46FEF680F862F90E0880F991F21E0E4
:100EC00030E02C0F3D1F820F931FFC016081640FE7
:100ED000606840E0C8010E941F07F7014481558106
:100EE00060817181C80128960FB6F894DEBF0FBEED
:100EF000CDBFDF91CF911F910F91FF90EF900C9498
:100F00006A030F931F93CF93DF93EC01888199813C
:100F1000009759F02A813B812617370730F081E08E
:100F2000DF91CF911F910F9108958B016F5F7F4FDC
:100F30000E94071D009759F0998388831B830A83B9
:100F40002C813D81232B59F7FC011082E8CF80E0F2
:100F5000E7CFEF92FF920F931F93CF93DF93EC01B4
:100F60007B01CB010E9435140097A9F00C811D81F3
:100F7000080F191FB801CE010E948107882361F074
:100F8000288139818C819D81B701820F931F0E9436
:100F90002E141D830C8381E0DF91CF911F910F915F
:100FA000FF90EF900895EF92FF920F931F93CF93CE
:100FB000DF936115710541F480E0DF91CF911F91BE
:100FC0000F91FF90EF90089541155105B1F07B010D
:100FD000EC010C811D81040F151FB8010E948107CF
:100FE000882351F3288139818C819D81B701820F3B
:100FF000931F0E94CD1D1D830C8381E0DECFEF92F5
:10100000FF920F931F93CF93DF93EC017B018A0133
:10101000BA010E94810781110BC0CE010E94EC062B
:10102000CE01DF91CF911F910F91FF90EF90089526
:101030001D830C83B701888199810E94CD1DF0CF5B
:10104000FB0101900020E9F73197AF01461B570BD8
:101050000C94FF07FB0101900020E9F73197AF01E5
:10106000461B570B0C94FF07DF92EF92FF920F93F2
:101070001F93CF93DF93EC017B01198218821B82AF
:101080001A821D821C8265E871E00E942A08D7013D
:1010900014960D911C9101151105E1F00431110513
:1010A00010F004E110E0D701ED91FC911197E00FF1
:1010B000F11FD08010826D917C91CE016115710578
:1010C00091F00E942008F70180819181080F191F7B
:1010D000D801DC92CE01DF91CF911F910F91FF904B
:1010E000EF90DF9008950E94EC06EDCFEF92FF9213
:1010F0000F931F93CF93DF93EC018B01198218821A
:101100001B821A821D821C82CB010E9435147C0135
:10111000BC01CE010E948107811109C0CE01DF917F
:10112000CF911F910F91FF90EF900C94EC06FD82F0
:10113000EC82B80188819981DF91CF911F910F9145
:10114000FF90EF900C942E14CF93DF93CDB7DEB7C2
:1011500062970FB6F894DEBF0FBECDBF1092B302F8
:101160001092B20266E272E0CE010D960E947608FD
:10117000CE0101960E9489019E01235F3F4F44E00A
:1011800050E063E070E0CE0101960E943C07CE0182
:101190000D960E94FE0662960FB6F894DEBF0FBE53
:1011A000CDBFDF91CF910895EF92FF920F931F93E0
:1011B000CF93DF93CDB7DEB7A1970FB6F894DEBF1C
:1011C0000FBECDBF7C01CB01BA01F70111821082A5
:1011D000138212821582148242E0420F8E010F5F49
:1011E0001F4F0E946C13009789F0BC01C7010E9439
:1011F0002008A1960FB6F894DEBF0FBECDBFDF91D9
:10120000CF911F910F91FF90EF900895C7010E9419
:10121000EC06EFCFEF92FF920F931F93CF93DF93E4
:10122000CDB7DEB768970FB6F894DEBF0FBECDBF5F
:101230001C8A1B8A1E8A1D8A188E1F8A66E871E026
:10124000CE0143960E942A0800E011E080EAE82ED1
:1012500082E0F82EF7014481558166817781F8019B
:101260002081CE0101960E94D4084D815E81698162
:101270007A81CE0143960E94D307CE0101960E9447
:10128000FE066DE372E0CE0143960E94A907BE01FF
:101290006D5E7F4FCE010D960E943408CE010196FF
:1012A0000E9489019E01235F3F4F50E040E061E0D2
:1012B00070E0CE0101960E943C07CE010D960E947F
:1012C000FE066AE871E0CE0143960E942008F7010D
:1012D0004081518162817381F8012081CE010196A4
:1012E0000E94D4084D815E8169817A81CE01439646
:1012F0000E94D307CE0101960E94FE0668E272E0CA
:10130000CE0143960E94A907BE016D5E7F4FCE01BC
:101310000D960E943408CE0101960E9489019E011B
:10132000235F3F4F50E040E062E070E0CE01019665
:101330000E943C07CE010D960E94FE06CE01439608
:101340000E94FE0668960FB6F894DEBF0FBECDBFB2
:10135000DF91CF911F910F91FF90EF90089585ED50
:101360008093BC008091720290917302A0917402EC
:10137000B09175020796A11DB11D23E0B695A79502
:10138000979587952A95D1F72091BC0024FD03C03D
:101390001092700208954091720250917302609110
:1013A000740270917502452B462B472B69F3009709
:1013B000A105B10541F02AE22A95F1F700C0019795
:1013C000A109B109E1CF809171020C94BC04809114
:1013D000B0029091B10281309105F1F118F00297BD
:1013E00021F108956091A0027091A1028091A20262
:1013F0009091A3029B01AC010E9464182BED3FE089
:1014000049E450E40E940B1720E030E044EB53E441
:101410000E94D5180E94691A6093A0027093A102DD
:101420008093A2029093A30208956091A00270910C
:10143000A1028091A2029091A3029B01AC010E94A3
:1014400064182BED3FE049E450E40E940B1720E0C4
:1014500030E048EC53E4DCCF6091A0027091A1022F
:101460008091A2029091A302D5CFCF93DF93C0EADF
:10147000D2E0688179818A819B810E94771A688392
:1014800079838A839B83DF91CF910895CF92DF92F6
:10149000EF92FF9287E480937C0080917A008064D1
:1014A00080937A0080917A0086FDFCCF609178006D
:1014B00070917900072E000C880B990B611571054E
:1014C0008105910511F00E9425140E94D6136B012D
:1014D0007C010E944A06C701B6012FEF3FEF4FEF94
:1014E0005FE70E94C9170E94AC1620E030E040E0A0
:1014F00050E30E940B176093A0027093A1028093A7
:10150000A2029093A302FF90EF90DF90CF900895F6
:101510001F920F920FB60F9211242F933F938F9328
:101520009F93AF93BF938091BA029091BB02A09119
:10153000BC02B091BD023091B50223E0230F2D37DC
:1015400058F50196A11DB11D2093B5028093BA02F2
:101550009093BB02A093BC02B093BD028091B602EF
:101560009091B702A091B802B091B9020196A11D65
:10157000B11D8093B6029093B702A093B802B093C6
:10158000B902BF91AF919F918F913F912F910F9091
:101590000FBE0F901F90189526E8230F0296A11DED
:1015A000B11DD2CF1F920F920FB60F9211242F931D
:1015B0003F934F935F936F937F938F939F93AF93DB
:1015C000BF93EF93FF938EEB92E00E94E803FF91AD
:1015D000EF91BF91AF919F918F917F916F915F91AB
:1015E0004F913F912F910F900FBE0F901F90189524
:1015F0001F920F920FB60F9211242F938F939F93E8
:10160000EF93FF93E091CE02F091CF028081E091C1
:10161000D402F091D50282FD1BC090818091D70247
:101620008F5F8F732091D802821741F0E091D7022B
:10163000F0E0E254FD4F958F8093D702FF91EF9138
:101640009F918F912F910F900FBE0F901F90189523
:101650008081F4CF1F920F920FB60F9211242F9317
:101660003F934F935F936F937F938F939F93AF932A
:10167000BF93EF93FF938091B900887F803609F480
:101680004AC0F0F5883209F4A7C018F5803109F492
:101690009BC0B8F4882309F4F9C0883009F494C0D9
:1016A000FF91EF91BF91AF919F918F917F916F913A
:1016B0005F914F913F912F910F900FBE0F901F9010
:1016C0001895883109F488C0803251F780936E02F2
:1016D00014C0803409F49DC040F48033B9F38833DA
:1016E000F9F680936E0285ECB0C0803509F485C0B0
:1016F000883509F496C0883499F60E94AF09D0CF96
:10170000883909F48CC038F5883729F050F48836C8
:1017100011F0803729F683E080937002109249021D
:1017200057C0883809F47BC0803919F0803809F037
:10173000B7CF80914902803208F071C0E091490230
:1017400081E08E0F809349028091BB00F0E0E75D5D
:10175000FD4F80833DC0803B39F0E0F4803A09F4CE
:1017600079C0883A09F09CCF84E08093700210928F
:10177000280210922702E0919A02F0919B020995AB
:101780008091270281110FC081E08093270210927F
:10179000070209C0803C09F4A6CF883C09F4A3CF16
:1017A000883B09F07DCFE091280281E08E0F809385
:1017B0002802F0E0E95FFD4F80818093BB009091AB
:1017C00028028091270229C080914B028093BB00A0
:1017D00085EC8093BC0064CF90916D0280916C0287
:1017E000981758F5E0916D0281E08E0F80936D029D
:1017F000F0E0E45BFD4F8081E9CFE0916D0281E094
:101800008E0F80936D028091BB00F0E0E45BFD4F92
:10181000808390916D0280916C029817C8F285E8E0
:10182000D8CFE0916D0281E08E0F80936D028091A0
:10183000BB00F0E0E45BFD4F808380916F0281117B
:101840005CCF81E080934A0284EA8093BC001092CE
:10185000700226CF85EC8093BC00109270028091BC
:101860004902803230F4E0914902F0E0E75DFD4F3B
:1018700010826091490270E0E0919802F091990223
:1018800089E292E00995109249020ACF10926E0205
:1018900034CF1092C1021092C00288EE93E0A0E013
:1018A000B0E08093C2029093C302A093C402B093AD
:1018B000C5022DE431E03093BF022093BE0225EC37
:1018C00030E03093CB022093CA0224EC30E0309316
:1018D000CD022093CC0220EC30E03093CF02209355
:1018E000CE0221EC30E03093D1022093D00222ECE2
:1018F00030E03093D3022093D20226EC30E03093D4
:10190000D5022093D4021092D7021092D8021092DE
:10191000D9021092DA0210925E0310925D03809356
:101920005F0390936003A0936103B09362038FE51C
:1019300091E090935C0380935B031092D903109223
:10194000D8038BE791E09093D7038093D60385E289
:101950008093DA0384E18093DF0384E08093E003E3
:101960001092E1031092690310926D0310926C03C0
:1019700010926E0381E791E0909368038093670370
:10198000E3E8F3E01082148213821582369683E036
:10199000EF3BF807B9F78AE091E09093CA03809390
:1019A000C90382E091E09093CC038093CB0385E060
:1019B0008093CD0388E08093CE038FE091E09093F5
:1019C000C8038093C7038AE090E09093D00380938C
:1019D000CF0384EF91E09093D2038093D1031092D0
:1019E000D5031092D4031092C3031092C403109233
:1019F000C5031092C6031092D3030895CF93DF93CB
:101A0000CDB7DEB76E970FB6F894DEBF0FBECDBF71
:101A1000789484B5826084BD84B5816084BD85B5C9
:101A2000826085BD85B5816085BD80916E008160D5
:101A300080936E001092810080918100826080937B
:101A4000810080918100816080938100809180007D
:101A50008160809380008091B10084608093B100A8
:101A60008091B00081608093B00080917A008460A2
:101A700080937A0080917A00826080937A008091CE
:101A80007A00816080937A0080917A0080688093E8
:101A90007A001092C100E091CE02F091CF0282E074
:101AA0008083E091CA02F091CB021082E091CC02D7
:101AB000F091CD0280E180831092D602E091D202B3
:101AC000F091D30286E08083E091D002F091D102C0
:101AD000808180618083E091D002F091D102808189
:101AE00088608083E091D002F091D102808180688B
:101AF0008083E091D002F091D10280818F7D80833C
:101B000010929F0210929E0210929D0210929C02CF
:101B10000E949E0487E693E090939B0280939A0232
:101B200088E693E090939902809398021092DB03E9
:101B30008091E003823018F098E09093DB0380936B
:101B4000DE0362E370E080E090E00E942A0360918F
:101B5000E10386ED93E00E94630568EE73E080E0A8
:101B600090E00E942A0360E386ED93E00E9406075E
:101B70000BE416E4C8010197F1F760E386ED93E00A
:101B80000E940607C8010197F1F760E386ED93E034
:101B90000E94060783E592E00197F1F760E286ED87
:101BA00093E00E9406076091DB03606240E086EDEF
:101BB00093E00E941F0784E08093DC0340E06CE028
:101BC00086ED93E00E941F0740E061E086ED93E020
:101BD0000E941F070BE31FE1C8010197F1F782E0A4
:101BE0008093DD0340E066E086ED93E00E941F07EE
:101BF00040E062E086ED93E00E941F07C801019774
:101C0000F1F788E08093E10360E086ED93E00E94C5
:101C100063051C8A1B8A1E8A1D8A188E1F8A6EE81D
:101C200071E0CE0143960E942A08CE0101960E94DF
:101C300089019E012D5E3F4F50E040E070E060E082
:101C4000CE0101960E943C07CE0143960E94FE06FB
:101C50001A8E198E1C8E1B8E1E8E1D8E6CE971E0E5
:101C6000CE0149960E942A0843E050E06EE971E0F7
:101C7000CE0149960E94D3074AE050E062EA71E043
:101C8000CE0149960E94D307BE01675E7F4FCE0109
:101C900043960E943408CE0101960E9489019E015C
:101CA0002D5E3F4F4DE050E070E060E0CE010196C8
:101CB0000E943C07CE0143960E94FE0689E090E018
:101CC00090930101809300010E940A090E944A0634
:101CD00080E090E0A4E3B2E48093A0029093A1029C
:101CE000A093A202B093A3020E940A0968EB7BE0D2
:101CF00080E090E00E942A030E94AB060E940A093D
:101D000068EB7BE080E090E00E942A030E9490064E
:101D10000E940A0968EB7BE080E090E00E942A03C1
:101D20000E94E7090E940A09CE0149960E94FE0618
:101D3000412C512C3201439488248394912C1A8E87
:101D4000198E1C8E1B8E1E8E1D8E65E871E0CE01D5
:101D500049960E942A0851E05093D3038FB7F89414
:101D60004091BA025091BB026091BC027091BD02D9
:101D70008FBF8091C3039091C403A091C503B0911C
:101D8000C603481B590B6A0B7B0B8091CF039091C4
:101D9000D003B0E0A0E084179507A607B70708F0C6
:101DA00029C110E08091CD03181760F4E091C903B8
:101DB000F091CA03E10FF11D62E080810E94C90227
:101DC0001F5FF0CF312C8091CE03381608F061C030
:101DD000E32CF12CE091CB03F091CC03EE0DFF1D31
:101DE00061E080810E94C902E091CB03F091CC03B5
:101DF000EE0DFF1D60E080810E949B02D301C201B5
:101E0000032C04C0880F991FAA1FBB1F0A94D2F786
:101E10005C016C01C094D094212C8091CD032816D4
:101E200008F5022D10E0E091C903F091CA03E00F1C
:101E3000F11F80810E9472020C5F1F4F000F111F63
:101E4000F801E959FC4F892B41F4808191818A295D
:101E50009B29918380832394E0CF808191818C2181
:101E60009D21F7CFE091CB03F091CC03EE0DFF1D48
:101E700061E080810E949B028091CB039091CC0312
:101E8000E80EF91E60E0F70180810E94C9023394D8
:101E90009ACF97E6E92E93E0F92E8701F801878D16
:101EA00090A1892B31F4148E8FEF9FEF968F858F41
:101EB00011A20A5F1F4FE3EAF3E0E017F10771F7A1
:101EC000D12C8091CD03D81608F053C0C12CAD2C75
:101ED000B12CAA0CBB1CC50181599C4F5C012091FF
:101EE000CE03C21608F043C0F501608171810C2C4D
:101EF00002C0769567950A94E2F7D29E900111246C
:101F00002C0D311DE7E6F3E080E0458D568D24175A
:101F1000350709F4DFC38F5F36968A30B1F760FF6B
:101F200024C0E7E6F3E090E080E0448D411118C062
:101F3000E091C703F091C803E20FF31F408156E020
:101F4000589FF001599FF00D1124E959FC4F448F1F
:101F5000368F258F10A2178E61E00E94D90105C02F
:101F6000019636968A30910501F7C394B8CFD39481
:101F7000A8CF80E0F70191A19111892FF6E0EF0E33
:101F8000F11CE016F106B1F79FB7F8944091BA0240
:101F90005091BB026091BC027091BD029FBF409303
:101FA000C3035093C4036093C5037093C60388238F
:101FB00009F1809188038823E9F08091860390914C
:101FC00087030197B9F4809183038093B402811150
:101FD00016C0CE0149960E94FE06E0E0F0E0EF2B2D
:101FE00009F4ADCE0E94D403882309F4A8CE0E9440
:101FF0000000A5CE1092D3031092B402EACF1C8A3F
:102000001B8A1E8A1D8A188E1F8A40E1BE016F5FDF
:102010007F4F082E000C990B0E943E14BE016F5F8B
:102020007F4FCE0143960E942008898D9A8D00979C
:1020300009F459C06B897C896115710509F451C097
:102040004B8D5C8D2F89388D4217530708F449C09A
:102050000E94CD1D8F89988D9E8F8D8F188E1F8A1F
:10206000CE0143960E94FE061A8219821C821B82B0
:102070001E821D82698D7A8D6115710531F04D8D3D
:102080005E8DCE0101960E94FF074EE050E06DEAA2
:1020900071E0CE0101960E94D307811104C0CE01E8
:1020A00001960E94EC064D815E8169817A818EEBFA
:1020B00092E00E946A030E94CD06CE0101960E9422
:1020C000FE062091B2023091B3022130310509F4AD
:1020D000F7C1D0F02230310509F408C20E940A0984
:1020E00078CF0E947E1C8B899C899A8F898F8D89DD
:1020F0009E899C8F8B8F8F89988D9E8F8D8F1C8A48
:102100001B8A1E8A1D8AAACF8091B402853209F4E7
:102110001BC1E4F5843109F4A0C054F4823109F400
:1021200078C00CF08DC08131C9F60E94350AD6CF37
:10213000863109F4D0C00CF4BFC0833209F4DDC08D
:10214000843261F68091B0029091B10281309105A4
:1021500009F4F1C008F4D4C0029709F0BFCF609130
:10216000A0027091A1028091A2029091A3029B0112
:10217000AC010E9464182BED3FE049E450E40E945A
:102180000B1720E030E048EC53E4D0C0833409F46E
:1021900064C164F4843309F41DC1823409F43BC181
:1021A000833309F09BCF0E946D0698CF843509F4E4
:1021B00061C1B4F4823509F091CF2091A002309131
:1021C000A1024091A2025091A3026091A4027091D9
:1021D000A5028091A6029091A7020E94D5184FC037
:1021E000863509F45AC1883509F078CF2091A002CC
:1021F0003091A1024091A2025091A3026091A402E9
:102200007091A5028091A6029091A7020E94641885
:1022100036C02091A0023091A1024091A2025091BB
:10222000A30264E578EF8DE290E40E94191A6093AE
:10223000A0027093A1028093A2029093A3024ECFBA
:102240002091A0023091A1024091A2025091A302DC
:1022500060E070E080E291E4E8CF2091A00230914C
:10226000A1024091A2025091A3026091A402709138
:10227000A5028091A6029091A7020E94191A6B01F3
:102280007C018091AC029091AD02A091AE02B09120
:10229000AF028093A0029093A102A093A202B093F8
:1022A000A3020E946D06C092A002D092A102E09209
:1022B000A202F092A30212CF2091A0023091A102BB
:1022C0004091A2025091A30260E070E080E89FE399
:1022D0000E94D518ACCF8091A0029091A102A0914C
:1022E000A202B091A302B0588093A0029093A102E1
:1022F000A093A202B093A302F1CE0E94E709EECE12
:102300006091A0027091A1028091A2029091A3021B
:102310009B01AC010E9464182BED3FE049E450E4BE
:102320000E940B1720E030E044EB53E40E94D518E4
:102330000E94D0187CCF6091A0027091A102809180
:10234000A2029091A302F4CF8091B0029091B102C9
:1023500081309105B1F1D0F0029709F0BFCE6091C4
:10236000A0027091A1028091A2029091A3029B0110
:10237000AC010E9464182BED3FE049E450E40E9458
:102380000B1720E030E048EC53E416C06091A00247
:102390007091A1028091A2029091A3029B01AC01D5
:1023A0000E9464182BED3FE049E450E40E940B17B3
:1023B00020E030E044EB53E40E94D5180E94B71AA5
:1023C00036CF6091A0027091A1028091A2029091FB
:1023D000A302F4CF8091A0029091A102A091A20249
:1023E000B091A3024091A4025091A5026091A6026F
:1023F0007091A7024093A0025093A1026093A202A1
:102400007093A3028093A4029093A502A093A602C6
:10241000B093A70263CE8CEB91E00E94D506909218
:10242000B3028092B20262E572E0CE0143960E944E
:102430007608CE0101960E9489019E012D5E3F4FD4
:1024400044E050E063E070E0CE0101960E943C075A
:10245000CE0143960E94FE0641CE81ED91E00E949E
:10246000D50682E090E09093B3028093B20264E5D7
:1024700072E0DBCF2091A0023091A1024091A20234
:102480005091A3026091A4027091A5028091A602CE
:102490009091A7020E940B17F2CE2091A0023091DA
:1024A000A1024091A2025091A3026091A4027091F6
:1024B000A5028091A6029091A7020E946318DFCE28
:1024C0008091B402863379F034F4823309F006CE79
:1024D0000E94A40803CE863431F0853509F0FECD84
:1024E0000E94AB06F5CF0E94460AF2CF8091B4025B
:1024F000883109F4C6C00CF05AC0833109F481C098
:10250000CCF4813109F47AC0823109F0E7CD6091D1
:10251000A0027091A1028091A2029091A3020E9458
:10252000D1196093A0027093A1028093A2029093AC
:10253000A302CECF863109F46FC00CF084C0843181
:1025400009F0CCCD2091A0023091A1024091A202CD
:102550005091A3026091A4027091A5028091A602FD
:102560009091A7020E940B1720E030E048EC52E463
:102570000E94D5186B017C018091AC029091AD0254
:10258000A091AE02B091AF028093A0029093A102FD
:10259000A093A202B093A3020E946D06C092A00273
:1025A000D092A102E092A202F092A30291CF8533D1
:1025B00009F47DC04CF4863209F46AC0833309F013
:1025C0008DCD0E944A0684CF813509F479C08535C6
:1025D00009F47DC0843409F081CD6091A00270912E
:1025E000A1028091A2029091A3020E944719072E96
:1025F000000C880B990B0E94AC1693CF0E94350AF1
:1026000067CF6091A0027091A1028091A202909187
:10261000A3020E94C11985CFC090A002D090A10250
:10262000E090A202F090A30220E030E0A901C701EF
:10263000B6010E94BC1918160CF4B0CFF7FAF0944A
:10264000F7F8F094ABCF1092B1021092B00266E5A9
:1026500072E0CE0143960E947608CE0101960E9458
:1026600089019E012D5E3F4F50E040E063E070E045
:10267000CE0101960E943C07CE0143960E94FE06C1
:1026800027CF9092B1028092B0026AE572E0E1CF6A
:102690000E944A068BED9FE0A9E4B0E48093A0027B
:1026A0009093A102A093A202B093A30211CF109223
:1026B000A0021092A1021092A2021092A30208CFCF
:1026C0003093B1022093B0026EE572E0C2CF0E9457
:1026D0009006FECE617041CCEF920F931F93CF9383
:1026E000DF93E80134E047FD34E1042E000C550B84
:1026F00057FF03C0519541955109E32E022F242F16
:10270000AE010E946314CE01DF91CF911F910F9112
:10271000EF9008958F929F92AF92BF92CF92DF92E7
:10272000EF92FF92CF93DF93EC01688179818A81E8
:102730009B81611571058105910521F464E279EDB4
:102740008BE597E02DE133EF41E050E00E94C9179F
:1027500049015A019B01AC01A7EAB1E40E94E817C4
:102760006B017C01ACEEB4EFA50194010E94F61759
:10277000C60ED71EE81EF91EF7FE06C081E0C81A75
:10278000D108E10880E8F80AC882D982EA82FB828F
:10279000C701B6019F77DF91CF91FF90EF90DF9057
:1027A000CF90BF90AF909F908F9008958F929F92FF
:1027B000AF92BF92CF92DF92EF92FF92609137017A
:1027C000709138018091390190913A01611571053C
:1027D0008105910521F464E279ED8BE597E02DE127
:1027E00033EF41E050E00E94C91749015A019B01B3
:1027F000AC01A7EAB1E40E94E8176B017C01ACEEE2
:10280000B4EFA50194010E94F617C60ED71EE81E6C
:10281000F91EF7FE06C081E0C81AD108E10880E879
:10282000F80AC0923701D0923801E0923901F09253
:102830003A01C701B6019F77FF90EF90DF90CF90EC
:10284000BF90AF909F908F900895609337017093E1
:1028500038018093390190933A010895FB01DC011E
:1028600005900D920020E1F70895FC0105900020ED
:10287000E9F7809590958E0F9F1F0895BB274A30EA
:1028800031F4992322F4BDE2909581959F4F0C94E9
:102890004A14BB27FB015527AA27880F991FAA1F97
:1028A000A41710F0A41B83955051B9F7A05DAA336B
:1028B00008F0A95DA193009779F7B111B193119236
:1028C000CB010C949A16A9E0B0E0E9E6F4E10C948F
:1028D00001186A01F22EB02E102FFBE3AF2EA016C6
:1028E00008F41BE31F5F012F27E0AE014F5F5F4F2E
:1028F0000E94C215BC018981982F9970913009F40A
:102900003FC09BE2E1FC04C09E2D9170E0FC3AC008
:102910005E2D5071E82FE87083FF46C084E091116E
:1029200001C083E0EF2DE81B8F1508F0E0E0D60131
:102930008E2F20E2552351F1992329F0D6019C9343
:10294000C60101966C0196012D5F3F4FE2FE24C047
:102950008EE4D6018C9391E411969C931197129674
:102960008C93D9018E2F90E281111BC0E20FF32FBF
:10297000F11D10828EEF9FEF2996ECE00C941D184C
:102980009DE2C6CF90E2C4CF2D9381508111FCCF40
:10299000CE0ED11CE0E0D0CF8EE6D6018C9391E62E
:1029A000DBCF9D938150E0CF482F447082FF3DC024
:1029B00084E0911101C083E08F1510F4EF2DE81B26
:1029C000D6018E2F20E2552309F1992329F0D60153
:1029D0009C93C60101966C0196012D5F3F4FE2FE6C
:1029E0001BC089E4D6018C938EE411968C931197C9
:1029F00086E412968C93D9018E2F90E2882309F4F5
:102A0000B5CF9D938150FACF2D9381508111FCCF8A
:102A1000CE0ED11CE0E0D9CF89E6D6018C938EE6AC
:102A200011968C93119786E6E4CF9B0177FF02C045
:102A300030E020E0A1E0B0E0911102C0B0E0A0E001
:102A4000F9013196AE0FBF1F8B2C912CBB2009F4DE
:102A500061C05401EFEFAE1ABE0AAA0DBB1DFA16F3
:102A60001B0619F014F04F2D4A1B511188C0E3FCCE
:102A700059C07601A42FB0E2A1114FC0C40ED11CE1
:102A8000992309F45BC040E0D6011196F6019083CA
:102A90006D01552309F448C0012F060F9A81582F64
:102AA000507184FF03C0913309F4015010160CF0EB
:102AB00047C0093008F008E0EEE2FE2E5B01A01AE4
:102AC000B10885019194819491082F3F320729F430
:102AD000D601FC92F60131966F016217730794F1EB
:102AE000021713077CF5DB01A21BB30BAA24A394E6
:102AF000B12CAC0EBD1EAA0DBB1D11968C912150A0
:102B00003109D601119628153905F4F0F6018083B4
:102B10006D01DBCFB12CA12CA0CFF701B1937F01C8
:102B2000A150AACF9111B0CFD601942F50E302C08B
:102B30005D9391509111FCCFC40ED11C40E0ACCFFD
:102B400001E0BACF80E3DBCF6217730731F496332D
:102B500088F4953311F4552369F0F6018083FD0163
:102B6000842F90E2811108C0A40FB11D1C9290E047
:102B700080E002CF81E3F1CF91938150F3CF9111A7
:102B800083CF8ACF283008F027E03327DA01990F66
:102B9000311D87FD916000966105710539F4326041
:102BA0002E5F3D9330E32A95E1F708959F3F30F083
:102BB00080387105610509F03C5F3C5F3D939130C1
:102BC00008F08068911DDF93CF931F930F93FF92BE
:102BD000EF92192F987F9695E92F96959695E90F84
:102BE000FF27EA57FE4F99273327EE24FF24A7013A
:102BF000E70105900894079428F4360FE71EF81EA5
:102C0000491F511D660F771F881F991F0694A1F752
:102C10000590079428F4E70EF81E491F561FC11DA2
:102C2000770F881F991F661F0694A1F705900794D8
:102C300028F4F80E491F561FC71FD11D880F991F72
:102C4000661F771F0694A1F70590079420F4490F9B
:102C5000561FC71FD81F990F661F771F881F06941E
:102C6000A9F784911095177041F0D695C79557959F
:102C70004795F794E7941A95C1F7ECE2F1E0689470
:102C80001590159135916591959105907FE2739519
:102C9000E118F10A430B560BC90BD009C0F7E10C40
:102CA000F11E431F561FC91FD01D7EF4703311F44F
:102CB0008A95E6CFE894015030F0080F0AF4002717
:102CC000021708F4202F2395022F7A3328F079E396
:102CD0007D932A95E9F710C07D932A9589F606948D
:102CE00097956795379517951794E118F10A430B57
:102CF000560BC90BD00998F023957E9173957A33C2
:102D000008F070E37C932013B8F77E9170617D9397
:102D100030F0839571E37D9370E32A95E1F71124F8
:102D2000EF90FF900F911F91CF91DF91992787FD31
:102D300090950895DC01FC01672F71917723E1F7ED
:102D4000329704C07C916D9370836291AE17BF0778
:102D5000C8F30895E89409C097FB3EF490958095D8
:102D6000709561957F4F8F4F9F4F9923A9F0F92F51
:102D700096E9BB279395F695879577956795B795CF
:102D8000F111F8CFFAF4BB0F11F460FF1BC06F5FB5
:102D90007F4F8F4F9F4F16C0882311F096E911C0C7
:102DA000772321F09EE8872F762F05C0662371F0E8
:102DB00096E8862F70E060E02AF09A95660F771FFC
:102DC000881FDAF7880F9695879597F90895990FD8
:102DD0000008550FAA0BE0E8FEEF16161706E807E5
:102DE000F907C0F012161306E407F50798F0621B06
:102DF000730B840B950B39F40A2661F0232B242BDB
:102E0000252B21F408950A2609F4A140A6958FEFF9
:102E1000811D811D08950E941E170C948F170E941A
:102E2000811738F00E94881720F0952311F00C9438
:102E300078170C947E1711240C94C3170E94A017C6
:102E400070F3959FC1F3950F50E0551F629FF001FD
:102E5000729FBB27F00DB11D639FAA27F00DB11D16
:102E6000AA1F649F6627B00DA11D661F829F22279F
:102E7000B00DA11D621F739FB00DA11D621F839F26
:102E8000A00D611D221F749F3327A00D611D231FFC
:102E9000849F600D211D822F762F6A2F11249F574A
:102EA00050409AF0F1F088234AF0EE0FFF1FBB1F4D
:102EB000661F771F881F91505040A9F79E3F51050C
:102EC00080F00C9478170C94C3175F3FE4F3983E9E
:102ED000D4F3869577956795B795F795E7959F5FB6
:102EE000C1F7FE2B880F911D9695879597F9089548
:102EF00097F99F6780E870E060E008959FEF80ECAD
:102F0000089500240A94161617061806090608954F
:102F100000240A9412161306140605060895092EB5
:102F20000394000C11F4882352F0BB0F40F4BF2B24
:102F300011F460FF04C06F5F7F4F8F4F9F4F089564
:102F400057FD9058440F551F59F05F3F71F047955A
:102F5000880F97FB991F61F09F3F79F0879508953F
:102F6000121613061406551FF2CF4695F1DF08C05E
:102F7000161617061806991FF1CF8695710561057B
:102F800008940895E894BB2766277727CB0197F923
:102F90000895052E97FB1EF400940E94E01757FD3C
:102FA00007D00E94321807FC03D04EF40C94E017AF
:102FB00050954095309521953F4F4F4F5F4F089565
:102FC00090958095709561957F4F8F4F9F4F089595
:102FD0000E945418A59F900DB49F900DA49F800D42
:102FE000911D11240895B7FF0C94E8170E94E8176B
:102FF000821B930B08952F923F924F925F926F9294
:103000007F928F929F92AF92BF92CF92DF92EF9278
:10301000FF920F931F93CF93DF93CDB7DEB7CA1BF9
:10302000DB0B0FB6F894DEBF0FBECDBF09942A8824
:10303000398848885F846E847D848C849B84AA84CC
:10304000B984C884DF80EE80FD800C811B81AA8159
:10305000B981CE0FD11D0FB6F894DEBF0FBECDBF24
:10306000ED010895A1E21A2EAA1BBB1BFD010DC0A4
:10307000AA1FBB1FEE1FFF1FA217B307E407F50728
:1030800020F0A21BB30BE40BF50B661F771F881F04
:10309000991F1A9469F760957095809590959B019A
:1030A000AC01BD01CF010895A29FB001B39FC00143
:1030B000A39F700D811D1124911DB29F700D811D64
:1030C0001124911D08955058BB27AA270E947B18F0
:1030D0000C948F170E94811738F00E94881720F0F7
:1030E00039F49F3F19F426F40C947E170EF4E09502
:1030F000E7FB0C947817E92F0E94A01758F3BA1732
:10310000620773078407950720F079F4A6F50C94FD
:10311000C2170EF4E0950B2EBA2FA02D0B01B901AA
:1031200090010C01CA01A0011124FF27591B99F03D
:10313000593F50F4503E68F11A16F040A22F232F49
:10314000342F4427585FF3CF469537952795A79599
:10315000F0405395C9F77EF41F16BA0B620B730B40
:10316000840BBAF09150A1F0FF0FBB1F661F771FB1
:10317000881FC2F70EC0BA0F621F731F841F48F466
:10318000879577956795B795F7959E3F08F0B0CFEF
:103190009395880F08F09927EE0F979587950895D6
:1031A0000E947F19E3950C94A8190E94E9180C94C9
:1031B0008F170E94881758F00E94811740F029F459
:1031C0005F3F29F00C94781751110C94C3170C949D
:1031D0007E170E94A01768F39923B1F3552391F34A
:1031E000951B550BBB27AA2762177307840738F076
:1031F0009F5F5F4F220F331F441FAA1FA9F335D0D3
:103200000E2E3AF0E0E832D091505040E695001C86
:10321000CAF72BD0FE2F29D0660F771F881FBB1F40
:10322000261737074807AB07B0E809F0BB0B802D1E
:10323000BF01FF2793585F4F3AF09E3F510578F04A
:103240000C9478170C94C3175F3FE4F3983ED4F3C3
:10325000869577956795B795F7959F5FC9F7880F1E
:10326000911D9695879597F90895E1E0660F771F70
:10327000881FBB1F621773078407BA0720F0621B01
:10328000730B840BBA0BEE1F88F7E09508950E942C
:103290004E196894B1110C94C31708950E94A81791
:1032A00088F09F5798F0B92F9927B751B0F0E1F007
:1032B000660F771F881F991F1AF0BA95C9F714C0B7
:1032C000B13091F00E94C217B1E008950C94C2177A
:1032D000672F782F8827B85F39F0B93FCCF38695F0
:1032E00077956795B395D9F73EF49095809570954D
:1032F00061957F4F8F4F9F4F08950C947E170E94CA
:10330000A817D8F3E894E0E0BB279F57F0F02AED28
:103310003FE049EC06C0EE0FBB0F661F771F881F0A
:1033200028F0B23A62077307840728F0B25A620B9A
:10333000730B840BE3959A9572F7803830F49A9565
:10334000BB0F661F771F881FD2F790480C94181B7D
:10335000EF93E0FF07C0A2EA2AED3FE049EC5FEB04
:103360000E947B180E948F170F90039401FC9058C5
:10337000E8E6F0E00C94521B0E94E71608F48FEF89
:1033800008950E94D11929ED3BE54EED5EE30C94C2
:103390000B1716F00C94161B0C947E1768940C9463
:1033A00078170E94A817A8F39923C1F3AEF3DF930F
:1033B000CF931F930F93FF92C92FDD2788232AF005
:1033C0002197660F771F881FDAF720E030E040E88A
:1033D0005FEB9FE3883920F0803E38F021968F77AD
:1033E0000E946418E6E8F0E004C00E946418E3EB71
:1033F000F0E00E942B1B8B01BE01EC01FB2E6F57EE
:1034000071097595771F880B990B0E94AC1628E1FE
:1034100032E741E35FE30E941E17AF2D9801AE0132
:10342000FF900F911F91CF91DF910E947B180C9418
:103430008F17FA01EE0FFF1F309621053105A1F11C
:103440006115710561F48038BFE39B0749F1689409
:103450009038810561F08038BFEF9B0741F09923D8
:103460004AF5FF3FE1053105210519F1E89408947B
:10347000E795D901AA2329F4AB2FBE2FF85FD0F32B
:1034800010C0FF5F70F4A695E0F7F73950F019F01F
:10349000FF3A38F49F779F930DD00F9007FC905818
:1034A000089546F00C947E1760E070E080E89FE39A
:1034B00008954FE79F775F934F933F932F930E9419
:1034C000D1192F913F914F915F910E940B170C944E
:1034D000E41A9F930E947F190F9007FCEE5F0C94F3
:1034E000A81919F416F40C947E170C94161B0E945C
:1034F000A817B8F39923C9F3B6F39F57550B87FF65
:103500000E94241B0024A0E640EA900180585695B2
:10351000979528F4805C660F771F881F20F0261788
:103520003707480730F4621B730B840B20293129BD
:103530004A2BA69517940794202531254A2758F73A
:10354000660F771F881F20F026173707480730F4CB
:10355000620B730B840B200D311D411DA09581F76B
:10356000B901842F9158880F969587950895DF9318
:10357000D92F0E947F19E695D7952AED3FE049E4BF
:103580005FE3B33A6207730784079507D7953AF06C
:10359000A2EA49EC90680E947B180E948F17E0EE27
:1035A000F0E00E94521BDD0F13F00E94661BDD0F3E
:1035B0000BF49058DF91089529F416F00C947817C5
:1035C0000C94C2170C947E170E94A817A8F3963883
:1035D000A0F707F80F92E8942BE33AEA48EB5FE78D
:1035E0000E9421170F920F920F924DB75EB70F9264
:1035F0000E94A81BE3E0F1E00E942B1B4F915F911A
:10360000EF91FF91E595EE1FFF1F49F0FE57E0682F
:103610004427EE0F441FFA95E1F74195550B0E94A0
:10362000721B0F9007FE0C94661B08959F3F31F0AC
:10363000915020F4879577956795B795880F911DE0
:103640009695879597F9089591505040660F771F8A
:10365000881FD2F70895DF93CF931F930F93FF92A4
:10366000EF92DF927B018C01689406C0DA2EEF01A5
:103670000E941E17FE01E894A59125913591459170
:103680005591A6F3EF010E947B18FE019701A80156
:10369000DA9469F7DF90EF90FF900F911F91CF912F
:1036A000DF9108959F938F937F936F93FF93EF9391
:1036B0009B01AC010E940B17EF91FF910E942B1B05
:1036C0002F913F914F915F910C940B179B01AC018F
:1036D00060E070E080E89FE30C94D5180C947817B4
:1036E0000C94161B0E94A817D8F39923C9F3940FC2
:1036F000511DA3F39150504094F059F0882332F0BB
:10370000660F771F881F91505040C1F79E3F5105AB
:103710002CF7880F911D9695879597F908955F3F2F
:10372000ACF0983E9CF0BB27869577956795B7954A
:1037300008F4B1609395C1F7BB0F58F711F460FF1F
:10374000E8CF6F5F7F4F8F4F9F4FE3CF0C94C3172E
:10375000FA01DC01AA0FBB1F9B01AC01BF5728F483
:10376000222733274427507820C0B75190F4AB2F3D
:103770000024469537952795011CA395D2F3002088
:1037800071F0220F331F441FB395DAF30ED00C945F
:10379000631861307105A0E88A07B94630F49B01CF
:1037A000AC016627772788279078309621F0208310
:1037B0003183428353830895EE0FFF1F0590F491E8
:1037C000E02D09940F931F93CF93DF9382309105DF
:1037D00010F482E090E0E091E403F091E50330E042
:1037E00020E0B0E0A0E0309799F42115310509F40C
:1037F0004AC0281B390B24303105D8F58A819B81BA
:103800006115710589F1FB0193838283FE0111C06B
:10381000408151810281138148175907E0F0481710
:10382000590799F4109761F012960C93129713961A
:103830001C933296CF01DF91CF911F910F91089584
:103840000093E4031093E503F4CF2115310551F003
:103850004217530738F0A901DB019A01BD01DF01CE
:10386000F801C1CFEF01F9CF9093E5038093E40312
:10387000CDCFFE01E20FF31F8193919322503109C6
:1038800039832883D7CF2091E2033091E303232BA0
:1038900041F420913D0130913E013093E3032093A8
:1038A000E20320913B0130913C012115310541F4A7
:1038B0002DB73EB740913F0150914001241B350B7D
:1038C000E091E203F091E303E217F307A0F42E1B6B
:1038D0003F0B2817390778F0AC014E5F5F4F241774
:1038E000350748F04E0F5F1F5093E3034093E20308
:1038F000819391939FCFF0E0E0E09CCFCF93DF9353
:103900000097E9F0FC01329713821282A091E40340
:10391000B091E503ED0130E020E01097A1F42081A3
:103920003181820F931F2091E2033091E303281726
:10393000390709F061C0F093E303E093E203DF91FC
:10394000CF910895EA01CE17DF07E8F54A815B8140
:103950009E0141155105B1F7E901FB83EA834991C5
:103960005991C40FD51FEC17FD0761F48081918137
:103970000296840F951FE901998388838281938140
:103980009B838A83F0E0E0E012968D919C911397DF
:103990000097B9F52D913C911197CD010296820FB8
:1039A000931F2091E2033091E3032817390739F67A
:1039B000309751F51092E5031092E403B093E303BE
:1039C000A093E203BCCFD383C28340815181840F93
:1039D000951FC817D90761F44E5F5F4F88819981A1
:1039E000480F591F518340838A819B81938382832F
:1039F0002115310509F0B0CFF093E503E093E4031E
:103A00009ECFFD01DC01C0CF13821282D7CFB0E080
:103A1000A0E0EDE0FDE10C94FD178C01009751F45E
:103A2000CB010E94E21B8C01C801CDB7DEB7E0E1FB
:103A30000C941918FC01E60FF71F9C012250310964
:103A4000E217F30708F49DC0D901CD91DC911197DD
:103A5000C617D70798F0C530D10530F3CE010497CB
:103A60008617970708F3C61BD70B2297C193D193EC
:103A70006D937C93CF010E947E1CD6CF5B01AC1A64
:103A8000BD0A4C018C0E9D1EA091E403B091E5038C
:103A9000512C412CF12CE12C109731F58091E2034F
:103AA0009091E3038815990509F05CC04616570606
:103AB00008F058C080913B0190913C01009741F47F
:103AC0008DB79EB740913F0150914001841B950BEB
:103AD000E817F90708F055C0F093E303E093E20319
:103AE000F90171836083A0CF8D919C9111971296FB
:103AF0006C90129713967C901397A815B90559F5F9
:103B00006C0142E0C40ED11CCA14DB0420F1AC01EC
:103B10004A195B09DA011296159780F06282738266
:103B200051834083D9016D937C93E114F10471F0CA
:103B3000D7011396FC93EE93129776CF22968C0FB3
:103B40009D1FF90191838083F301EFCFF093E5038B
:103B5000E093E40369CF4816590608F42C017D016F
:103B6000D3019ACFCB010E94E21B7C01009749F060
:103B7000AE01B8010E94C41DC8010E947E1C8701CD
:103B800053CF10E000E050CFFB01DC0102C00190F8
:103B90000D9241505040D8F70895FB01DC0101908F
:0C3BA0000D920020E1F70895F894FFCF8B
:103BAC0004000708090A0B0C0D1102030405061189
:103BBC001213141516171821222324252627283111
:103BCC003233343536373841424344454647485101
:103BDC0052535455565758010000000000E603801C
:103BEC00000000400014005400000000000A046AA9
:103BFC000397035704C803A603BA0300000000345C
:103C0C00050705CA06DD040005ED04DE040000000E
:103C1C00005C03600364030000000036076A03CAFB
:103C2C000669030D0A00593A2000583A2000474112
:103C3C00572052504E2063616C6320007600302E6A
:103C4C0032002020202020202020202000202D2089
:103C5C006B65792070726573736564004D616B6977
:103C6C006E6720736869667420737461746520468E
:103C7C00004D616B696E672073686966742073749C
:063C8C0061746520470091
:00000001FF
